:020000041000EA
:100000000000022005A3001053200010233500102B
:1000100077640010A76400109772001000000000C1
:10002000000000000000000000000000C772001087
:100030006777001000000000BF7800107DA400105A
:10004000C1A40010C1A40010C1A40010C1A40010DC
:10005000C1A40010C1A40010C1A40010C1A40010CC
:10006000C1A40010C1A40010C1A40010C1A40010BC
:10007000C1A40010C1A40010C1A40010C1A40010AC
:10008000C1A40010C1A40010C1A40010C1A400109C
:10009000C1A40010C1A40010C1A40010C1A400108C
:1000A000C1A40010C1A40010C1A40010C1A400107C
:1000B000FD860010C1A40010C1A400106B850010C3
:1000C000C1A400107F850010C1A40010938500100A
:1000D000C1A40010C1A40010C1A40010C1A400104C
:1000E000C1A40010C1A40010C1A40010C1A400103C
:1000F000A7850010C1A4001045860010C1A40010FF
:100100003B9C0010C39C0010D19C0010E59C00108B
:10011000C1A40010C1A40010C1A40010C1A400100B
:10012000C1A40010C1A400106B730010C1A4001082
:10013000499B0010C1A4001025360010C1A4001076
:10014000C1A40010C1A40010C1A40010C1A40010DB
:10015000C1A40010C1A40010C1A40010C1A40010CB
:10016000C1A40010C1A40010C1A40010C1A40010BB
:10017000C1A40010C1A40010C1A40010C1A40010AB
:1003F000C1A40010C1A40010C1A40010FFFFFFFFA2
:10040000FFFFFFFFFFFFFFFFFFFFFFFFFEFFFFFFFD
:1004100080B502210A2001F010FD754908800221F3
:100420000C2001F00AFD724948800221092001F0E8
:1004300004FD6F49888002210B2001F0FEFC6C490D
:10044000C8800221072001F0F8FC6949088168484A
:1004500000886749C988081865498988401828288C
:1004600002DA01206349087001BD10B5002411E0D3
:100470006149C0B20A2202FB00F21144E4B25C4AB4
:10048000C0B232F8102021F81420401CC0B2052858
:10049000EEDB641CE4B2052C03DAFFF7B9FF0020A1
:1004A000F4E710BD70B4002000E0401CC0B2052885
:1004B00049DA042142E0504BC0B20A2404FB00F4A4
:1004C0002344D2B203EB42035B884B4CC0B20A25F3
:1004D00005FB00F52C44D2B234F81240A34225D2D9
:1004E000454BC0B20A2404FB00F42344D2B233F8D3
:1004F0001230414CC0B20A2505FB00F52C44D2B2A3
:100500003D4DC0B20A2606FB00F63544D2B205EBDB
:1005100042056D8824F81250374CC0B20A2505FBFD
:1005200000F52C44D2B204EB42046380521C130049
:100530000C00DBB2E4B2A342BDD3491EC9B200290C
:10054000B3D00022F3E7002020E02B49C0B20A22FA
:1005500002FB00F211444988274AC0B20A2303FB78
:1005600000F31A44928812FA81F1234AC0B20A2396
:1005700003FB00F31A44D28811FA82F1032291FBA3
:10058000F2F11E4AC0B222F81010401CC0B2052879
:10059000DBDB70BC704710B4002022E0184AC0B208
:1005A0000A2303FB00F31A44C9B2154BC0B20A2454
:1005B00004FB00F42344C9B203EB410333F8023CCB
:1005C00022F81130491EC9B20029E7D10B49C0B247
:1005D00031F810100A4AC0B20A2303FB00F3D152CB
:1005E000401CC0B2052801DA0421ECE710BC7047BA
:1005F0007804002098BC002084040020B804002067
:10060000C404002010B5002411E0C748E4B230F85B
:10061000140001F03FFC5FF03332C44B01F048FCA2
:1006200001F018FDC249E4B221F81400641CE4B2E0
:10063000052CEADB00208AE0BE49C0B20A2202FB98
:1006400000F2895A0522BB4BC0B20A2404FB00F415
:1006500023445B889B0002FB0131B64AC0B20A23E7
:1006600003FB00F31A449288032303FB0211B14AEF
:10067000C0B20A2303FB00F31A44D28811EB4201F3
:10068000AC4AC0B20A2303FB00F31A44128911FAE0
:1006900082F10F2291FBF2F1A74AC0B222F81010AA
:1006A000A549C0B231F81010A44AC0B232F81020E7
:1006B000891A00EE101AB8EEC00A9B49C0B231F890
:1006C00010109E4AC0B232F81020891A00EE901A1B
:1006D000F8EEE00A80EE200ADFF8501DC0B201EB10
:1006E000800181ED000A9449C0B231F81010904A9F
:1006F000C0B232F81020914206D3DFF8301DC0B2EC
:100700005FF07E5241F820208C49C0B231F81010C1
:10071000894AC0B232F81020914205D3DFF80C1D8F
:10072000C0B2002241F82020DFF8001DC0B201EB6A
:10073000800191ED000ADFED7A0A20EE200ADFF851
:10074000EC1CC0B201EB800181ED000A401CC0B27C
:100750000528FFF671AFDFF8D40C90ED020ADFF840
:10076000CC0CD0ED000A30EE600ADFF8700D80EDA1
:10077000000ADFF8B80C90ED000ADFF8B00CD0EDFD
:10078000020A30EE200ADFF8580D80ED000A6C48AE
:1007900090ED000ABDEEC00AB8EEC00ADFF8440DC5
:1007A00080ED000ADFF8340D90ED000ADFF8300D1F
:1007B000D0ED000A80EE200ADFED590A20EE200A73
:1007C0005F4880ED000A5F48006800281ED15E483F
:1007D0000068B0F51670B0F5AF7F17D85B4890EDA4
:1007E000010ADFED500AB4EE600AF1EE10FA0DDBFB
:1007F00057480068012809D10020554908600120A8
:10080000544908600021022001F064FC514800684E
:10081000012837D150480068012803D148484F4982
:10082000016002E046484E49016002F0EDF84D4992
:1008300008604C480068012802D101204A4908603C
:1008400049480068012818D148480068401C4749B9
:1008500008604648006864280FDB00203D490860B6
:1008600000204249086000203F49086001204049BB
:1008700008600121022001F02DFC314890ED000AB2
:1008800001F069BA3A480068012826D10021002009
:1008900001F020FC30480068012803D12848354980
:1008A000016002E026483449016030480068401C7D
:1008B0002E4908602D480068B0F5FA7F08DB00205B
:1008C0002A49086000202A49086001202B49086055
:1008D0001B4890ED000A01F03EBA28480068012844
:1008E00052D11D480068012803D1154824490160F0
:1008F00002E01348234901601C480068401C1B4962
:1009000008601A480068822805DB00201749086043
:1009100000201A4908600A4890ED000A01F01BBA4D
:100920000000C842FFFFAFC1080000203333F33F8F
:1009300038050020C4040020F80400206C040020C6
:1009400058B7002068B7002008070020F4050020F1
:10095000140000205005002000000020000020426C
:10096000000020C254050020600500204C05002036
:1009700058050020000034C20000C8415C0500207A
:100980000000A0420000A0C2DFF8B40D0068DFF84C
:10099000B41D0860DFF8B00D0068DFF8A81D08601E
:1009A000DFF8AC0DC088DFF8981D0860DFF8A00DF7
:1009B0000089DFF8A01D0860DFF8700A90ED020AD8
:1009C000BDEEC00ADFF8800D80ED000ADFF88C0D67
:1009D0000068DFF8E41D0860DFF8E00D0068DFF86C
:1009E0007C1D0860DFF8D80D0068DFF8D01D0860B6
:1009F000DFF8380A90ED020ABDEEC00ADFF8C00D3C
:100A000080ED000ADFF8BC0D0068022806D1DFF88F
:100A1000E80D0068401CDFF8E01D0860DFF80C0AF4
:100A200090ED000ADFEDDF0AB4EE600AF1EE10FA95
:100A300023DBDFF8F80990ED020ADFEDDB0AB4EE04
:100A4000600AF1EE10FA18DBDFF8E00990ED010A18
:100A5000DFEDD50AB4EE600AF1EE10FA0DDBDFF837
:100A6000A00D0068012808D1DFF8580D00680028A3
:100A700003D10120DFF84C1D0860DFF8480D006845
:100A8000012819D1DFF8A40990ED030ADFEDD80A97
:100A9000B4EE600AF1EE10FA0ADADFF8900990ED90
:100AA000040ADFEDD30AB4EE600AF1EE10FA03DBBC
:100AB0000220DFF8101D0860DFF8080D006802282A
:100AC0002ED1DFF8340D0068C92829DB0320DFF8B8
:100AD000F41C08600020DFF8201D0860DFF84C09D6
:100AE00090ED030ADFF84409D0ED040AB4EE600A81
:100AF000F1EE10FA03D50120DFF8881D0860DFF859
:100B00002C0990ED040ADFF82409D0ED030AB4EEB5
:100B1000600AF1EE10FA03D50120DFF8701D0860BD
:100B2000DFF8A00C006803280BD1DFF80009C068CB
:100B3000DFF8F8180860DFF8F408DFF8F018096942
:100B40008160DFF8400D0068012819D1DFF8DC086A
:100B500090ED010ADFEDC80AB4EE600AF1EE10FA7A
:100B60000ED5DFF8C80890ED020ADFEDC40AB4EE36
:100B7000600AF1EE10FA03D50420DFF8481C086083
:100B8000DFF8080D006801281DD1DFF8A00890EDFE
:100B9000020ADFEDB90AB4EE600AF1EE10FA12D5DE
:100BA000DFF8880890ED010ADFEDB30AB4EE600AC1
:100BB000F1EE10FA07D50520DFF8081C08600021C7
:100BC000022001F087FADFF8FC0B006802281DD133
:100BD000DFF8880D90ED000ADFEDA90AB4EE600A97
:100BE000F1EE10FA03D5DFF8740DA5490160DFF8C6
:100BF0006C0D90ED000ADFEDA30AB4EE600AF1EE91
:100C000010FA03DBDFF8540D9C490160DFF8B40BE8
:100C1000006804280FD1DFF8140890ED010AF2EE05
:100C2000040AB4EE600AF1EE10FA04D5DFF82C0DD8
:100C3000DFF85C1D0160DFF88C0B006805280FD120
:100C4000DFF8E80790ED030AF2EE040AB4EE600A5A
:100C5000F1EE10FA04D5DFF8040DDFF8881D01600D
:100C6000DFF8600B0068032839DBDFF8C00790ED80
:100C7000020ADFF8B807D0ED000A30EE600ADFF8AC
:100C80005C0880ED000ADFF8A40790ED000ADFF8A9
:100C90009C07D0ED020A30EE200ADFF8440880ED10
:100CA000000ADFF84008DFF8741D09680160DFF80A
:100CB0002C0890ED000ADFF82808D0ED000A80EE3D
:100CC000200ADFEDD30A20EE200ADFF8900C80ED39
:100CD000000ADFF8480DDFF8841C09680160DFF8BE
:100CE000E40A0068032826D1DFF8400790ED030AE4
:100CF000DFED3F0AB4EE600AF1EE10FA1BDBDFF81D
:100D00002C0790ED040ADFED3A0AB4EE600AF1EE2A
:100D100010FA10DBDFF85C0D0068401CDFF8541D92
:100D20000860DFF8500D0068652804DADFF8EC0C85
:100D3000DFF8741D0160DFF88C0A0068042825DBE9
:100D4000DFF8E80690ED030AF1EE040AB4EE600A5B
:100D5000F1EE10FA1AD5DFF8D40690ED040AF1EEA0
:100D6000040AB4EE600AF1EE10FA0FD50020DFF8A5
:100D7000541A08600020DFF80C1B08600020DFF820
:100D80000C1B08600021032001F0A4F9DFF8240DFA
:100D90000078022803D10120DFF8201D0870DFF859
:100DA0001C0D03E0000020420100204200780128D1
:100DB00040F04984DFF8740690ED000ADFEDD50AB3
:100DC000B4EE600AF1EE10FA39DBDFF8600690ED60
:100DD000010ADFEDD10AB4EE600AF1EE10FA2EDB63
:100DE000DFF8480690ED020ADFEDCC0A02E000BF12
:100DF0000100F041B4EE600AF1EE10FA1FDBDFF8FB
:100E0000380D007802281AD1DFF8300D006801286B
:100E100015D1DFF8300D0068002810D1DFF8280D5B
:100E2000007803280BD00320DFF8241D0870012070
:100E3000DFF8201D08600021002001F04BF9DFF8E9
:100E4000EC0590ED000ADFEDD60AB4EE600AF1EE93
:100E500010FA3EDBDFF8D40590ED010ADFEDD10A90
:100E6000B4EE600AF1EE10FA33DBDFF8C00590ED66
:100E7000020ADFEDCD0A07E00000344200005C42C8
:100E800000005CC201005C42B4EE600AF1EE10FAB0
:100E90001FDBDFF8A40C007802281AD1DFF89C0CC5
:100EA0000068012815D1DFF89C0C0068002810D1DB
:100EB000DFF8940C007803280BD00320DFF8901C97
:100EC00008700220DFF88C1C08600021002001F06F
:100ED00001F9DFF8580590ED000ADFEDB10AB4EE34
:100EE000600AF1EE10FA35DBDFF8400590ED010AFB
:100EF000DFEDAC0AB4EE600AF1EE10FA2ADBDFF89F
:100F00002C0590ED020ADFEDA70AB4EE600AF1EEBF
:100F100010FA1FDBDFF8200C007802281AD1DFF866
:100F20001C0C0068012815D1DFF8180C0068002897
:100F300010D1DFF8140C007803280BD00320DFF861
:100F4000101C08700320DFF80C1C08600021002032
:100F500001F0C0F8DFF8D40490ED000ADFEDD20A0A
:100F6000B4EE600AF1EE10FA35DBDFF8C00490ED64
:100F7000010ADFED8C0AB4EE600AF1EE10FA2ADB0A
:100F8000DFF8A80490ED020ADFED850AB4EE600AEE
:100F9000F1EE10FA1FDBDFF8A00B007802281AD15F
:100FA000DFF8980B0068012815D1DFF8980B00686E
:100FB000002810D1DFF8900B007803280BD0032015
:100FC000DFF88C1B08700420DFF8881B0860002104
:100FD000002001F07FF8DFF8540490ED000ADFED07
:100FE000B20AB4EE600AF1EE10FA38DBDFF83C0426
:100FF00090ED010ADFED6B0AB4EE600AF1EE10FA33
:101000002DDBDFF8280490ED020ADFED650A01E030
:101010000000C842B4EE600AF1EE10FA1FDBDFF800
:10102000180B007802281AD1DFF8100B006801288D
:1010300015D1DFF8100B0068002810D1DFF8080B7D
:10104000007803280BD00320DFF8041B087004206D
:10105000DFF8001B08600021002001F03BF8DFF8FA
:10106000CC0390ED000ADFEDD00AB4EE600AF1EE99
:1010700010FA35DBDFF8B40390ED010ADFEDCB0A9F
:10108000B4EE600AF1EE10FA2ADBDFF8A00390ED6F
:10109000020ADFEDC70AB4EE600AF1EE10FA1FDBB8
:1010A000DFF8940A007802281AD1DFF8900A006865
:1010B000012815D1DFF88C0A0068002810D1DFF86C
:1010C000880A007803280BD00320DFF8841A087000
:1010D0000520DFF8801A08600021002000F0FAFFE8
:1010E000D24890ED000ADFEDCE0AB4EE600AF1EED0
:1010F00010FA3ADBCD4890ED010ADFEDCA0AB4EEF2
:10110000600AF1EE10FA30DBC84890ED020ADFED1C
:10111000C60A05E0010008420100684201009E4243
:10112000B4EE600AF1EE10FA1FDBDFF80C0A00786B
:1011300002281AD1DFF8040A0068012815D1DFF867
:10114000040A0068002810D1DFF8FC0900780328A1
:101150000BD00320DFF8F81908700620DFF8F41927
:1011600008600021002000F0B5FFB04890ED000AB3
:10117000DFEDCB0AB4EE600AF1EE10FA3BDBAB48D0
:1011800090ED010ADFEDC70AB4EE600AF1EE10FA45
:1011900031DBA64890ED020ADFEDCF0A06E000BF82
:1011A000010020420100704201008A42B4EE600A50
:1011B000F1EE10FA1FDBDFF88009007802281AD15F
:1011C000DFF878090068012815D1DFF87809006890
:1011D000002810D1DFF87009007803280BD0032015
:1011E000DFF86C1908701320DFF868190860002117
:1011F000002000F06FFF8D4890ED000ADFEDBA0A85
:10120000B4EE600AF1EE10FA33DB884890ED010A83
:10121000DFEDD20AB4EE600AF1EE10FA29DB834862
:1012200090ED020ADFEDCE0AB4EE600AF1EE10FA9C
:101230001FDBDFF80409007802281AD1DFF8FC0868
:101240000068012815D1DFF8FC080068002810D1DB
:10125000DFF8F408007803280BD00320DFF8F0183B
:1012600008701420DFF8EC1808600021002000F05E
:1012700031FF6E4890ED000ADFED9B0AB4EE600A84
:10128000F1EE10FA37DB694890ED010ADFEDB30AA1
:10129000B4EE600AF1EE10FA2DDB644890ED020A1C
:1012A000DFEDAF0A02E000BF01008842B4EE600A41
:1012B000F1EE10FA1FDBDFF88008007802281AD15F
:1012C000DFF878080068012815D1DFF87808006891
:1012D000002810D1DFF87008007803280BD0032015
:1012E000DFF86C1808701420DFF868180860002117
:1012F000002000F0EFFE4D4890ED000ADFED480AB7
:10130000B4EE600AF1EE10FA33DB484890ED010AC2
:10131000DFEDD30AB4EE600AF1EE10FA29DB4348A0
:1013200090ED020ADFEDCF0AB4EE600AF1EE10FA9A
:101330001FDBDFF80408007802281AD1DFF8FC0769
:101340000068012815D1DFF8FC070068002810D1DB
:10135000DFF8F407007803280BD00320DFF8F0173C
:1013600008701520DFF8EC1708600021002000F05D
:10137000B1FE2E4890ED000ADFEDC60AB4EE600A19
:10138000F1EE10FA3BDB294890ED010ADFEDC20ACD
:10139000B4EE600AF1EE10FA31DB244890ED020A57
:1013A000DFEDBE0A06E000BF0100C8410100344283
:1013B0000100B242B4EE600AF1EE10FA1FDBDFF872
:1013C0007807007802281AD1DFF870070068012832
:1013D00015D1DFF870070068002810D1DFF8680722
:1013E000007803280BD00320DFF86417087016205C
:1013F000DFF8601708600021002000F06BFE0B484A
:1014000090ED000ADFEDCD0AB4EE600AF1EE10FABD
:101410003EDB064890ED010ADFEDCC0A08E000BF94
:101420000100F041010082420100A84204050020B1
:10143000B4EE600AF1EE10FA2ADBDFF8680990EDED
:10144000020ADFEDC50AB4EE600AF1EE10FA1FDB06
:10145000DFF8E406007802281AD1DFF8E006006819
:10146000012815D1DFF8DC060068002810D1DFF86C
:10147000D806007803280BD00320DFF8D4160870B4
:101480001720DFF8D01608600021002000F022FEAF
:10149000DFF8100990ED000ADFED7F0A04E000BFDD
:1014A0000100884101000842B4EE600AF1EE10FA32
:1014B00041DBDFF8F00890ED010ADFEDD00AB4EE71
:1014C000600AF1EE10FA36DBDFF8D80890ED020A78
:1014D000DFED630A0AE000BF0100B84250B7002008
:1014E00054B70020200500200100C041B4EE600A7E
:1014F000F1EE10FA1FDBDFF84006007802281AD15F
:10150000DFF838060068012815D1DFF838060068D2
:10151000002810D1DFF83006007803280BD0032014
:10152000DFF82C1608701820DFF828160860002154
:10153000002000F0CFFDDFF86C0890ED000ADFED31
:10154000D00AB4EE600AF1EE10FA3BDBDFF8540883
:1015500090ED010ADFEDA90A04E000BF010020427E
:101560000100AC42B4EE600AF1EE10FA2ADBDFF8BB
:10157000340890ED020ADFEDC40AB4EE600AF1EE21
:1015800010FA1FDBDFF8B005007802281AD1DFF867
:10159000AC050068012815D1DFF8A805006800280F
:1015A00010D1DFF8A405007803280BD00320DFF862
:1015B000A01508701920DFF89C1508600021002094
:1015C00000F088FDDFF8DC0790ED000ADFEDCE0AC1
:1015D000B4EE600AF1EE10FA35DBDFF8C80790EDE3
:1015E000010ADFED5D0AB4EE600AF1EE10FA2ADBC3
:1015F000DFF8B00790ED020ADFEDC40AB4EE600A2E
:10160000F1EE10FA1FDBDFF83005007802281AD15E
:10161000DFF828050068012815D1DFF828050068E3
:10162000002810D1DFF82005007803280BD0032014
:10163000DFF81C1508701A20DFF818150860002163
:10164000002000F047FDDFF86C040078012803D18A
:101650000120DFF854170870DFF84C0704E000BFE2
:1016600001004842010098420078012840F071834F
:10167000DFF8300790ED000ADFED810AB4EE600A72
:10168000F1EE10FA3CDBDFF81C0790ED010ADFED0C
:101690002F0A05E001001C4201006042010088425F
:1016A000B4EE600AF1EE10FA2ADBDFF8F80690EDEE
:1016B000020ADFEDCB0AB4EE600AF1EE10FA1FDB8E
:1016C000DFF87404007802281AD1DFF87804006883
:1016D000012815D1DFF864040068002810D1DFF874
:1016E0007004007803280BD00320DFF85C14087026
:1016F0000720DFF8601408600021002000F0EAFCF9
:10170000DFF8A00690ED000ADFEDC30AB4EE600A30
:10171000F1EE10FA49DBDFF88C0690ED010ADFEDFF
:10172000C00AB4EE600AF1EE10FA3EDBDFF8740690
:1017300090ED020ADFEDBB0A12E000BF0100444257
:101740005CB700202405002060B70020010074422F
:101750007804002064B7002001006C4230050020AE
:10176000B4EE600AF1EE10FA1FDBDFF8CC0300786C
:1017700002281AD1DFF8CC030068012815D1DFF860
:10178000BC030068002810D1DFF8C40300780328E8
:101790000BD00320DFF8B01308700820DFF8B41373
:1017A00008600021002000F095FCDFF8F80590EDBE
:1017B000000ADFEDBE0A07E0340500202C050020FA
:1017C0002805002044050020B4EE600AF1EE10FA6E
:1017D00039DBDFF8D00590ED010ADFEDB50AB4EE94
:1017E000600AF1EE10FA2EDBDFF8B80590ED020A80
:1017F000DFEDB10A06E000BF1805002001007842C5
:1018000070060020B4EE600AF1EE10FA1BDBDFF880
:1018100028030078022816D1DFF828030068012881
:1018200011D1C648006800280DD1C94800780328A6
:1018300009D00320C44908700920C6490860002166
:10184000002000F047FCDFF85C0590ED000ADFEDBA
:10185000640AB4EE600AF1EE10FA38DBDFF84405F2
:1018600090ED010ADFEDB60AB4EE600AF1EE10FA6F
:101870002DDBDFF8300590ED020ADFEDB40A07E05A
:101880000100824270050020010028426C05002002
:10189000B4EE600AF1EE10FA19DBA74800780228CE
:1018A00015D1A8480068012811D1A4480068002873
:1018B0000DD1A7480078032809D00320A249087059
:1018C0000A20A44908600021002000F003FCDFF892
:1018D000D40490ED000ADFEDC10AB4EE600AF1EE27
:1018E00010FA34DBDFF8BC0490ED010ADFEDBC0A2E
:1018F000B4EE600AF1EE10FA29DBDFF8A80490EDEF
:10190000020ADFEDB80A03E001008E420100144232
:10191000B4EE600AF1EE10FA19DB8748007802286D
:1019200015D188480068012811D184480068002832
:101930000DD187480078032809D003208249087018
:101940000B20844908600021002000F0C3FBDFF871
:10195000540490ED000ADFEDC50A01E048050020BF
:10196000B4EE600AF1EE10FA33DBDFF8380490EDE4
:10197000010ADFEDBF0AB4EE600AF1EE10FA28DBCF
:10198000DFF8200490ED020ADFEDD00A02E000BF8C
:10199000000070C2B4EE600AF1EE10FA19DB66487E
:1019A0000078022815D167480068012811D16348E2
:1019B000006800280DD166480078032809D003206C
:1019C000614908700C20634908600021002000F084
:1019D00081FBDFF8D00390ED000ADFEDD10A03E0D0
:1019E0000100604200007042B4EE600AF1EE10FAAD
:1019F00039DBDFF8B00390ED010ADFEDD00AB4EE79
:101A0000600AF1EE10FA2EDBDFF8980390ED020A7F
:101A1000DFEDD10A08E000BF0100A04258B7002066
:101A20000100704201002042B4EE600AF1EE10FAAB
:101A300019DB41480078022815D142480068012886
:101A400011D13E48006800280DD141480078032894
:101A500009D003203C4908700D203E490860002150
:101A6000002000F037FBDFF83C0390ED000ADFEDCB
:101A7000B30A01E01C050020B4EE600AF1EE10FA92
:101A80003DDBDFF8200390ED010ADFEDB40AB4EE90
:101A9000600AF1EE10FA32DBDFF8080390ED020A7B
:101AA000DFEDAF0A0CE000BF000020410100AC42B6
:101AB00001005442B5BC00200100D041B3BC00205D
:101AC000B4EE600AF1EE10FA19DB1B480078022828
:101AD00015D11C480068012811D118480068002859
:101AE0000DD11B480078032809D00320164908703F
:101AF0000E20184908600021002000F0EBFADFF802
:101B0000A40290ED000ADFED970AB4EE600AF1EE50
:101B100010FA46DBDFF88C0290ED010ADFED920A45
:101B2000B4EE600AF1EE10FA3BDBDFF8780290EDDC
:101B3000020ADFED8E0A0FE0B4BC002054BC002086
:101B40000100684250BC0020B6BC002001008A425F
:101B5000B7BC002068050020B4EE600AF1EE10FA70
:101B60001FDBDFF84802007802281AD1DFF84002B4
:101B70000068012815D1DFF83C020068002810D168
:101B8000DFF83402007803280BD00320DFF82C1292
:101B900008700F20DFF8281208600021002000F0F4
:101BA00099FADFF8000290ED000ADFED0E0AB4EEBC
:101BB000600AF1EE10FA3CDBDFF8E80190ED010A73
:101BC000DFED660AB4EE600AF1EE10FA31DBDFF801
:101BD000D40190ED020ADFED6B0A05E001004042FE
:101BE0000100484201008842B4EE600AF1EE10FAAA
:101BF0001FDBDFF8B801007802281AD1DFF8B00146
:101C00000068012815D1DFF8AC010068002810D168
:101C1000DFF8A401007803280BD00320DFF89C1123
:101C200008701020DFF8981108600021002000F0F3
:101C300051FADFF8700190ED000ADFED530AB4EEBF
:101C4000600AF1EE10FA3ADBDFF8580190ED010A74
:101C5000DFED4E0AB4EE600AF1EE10FA2FDBDFF88A
:101C6000440190ED020ADFED4A0A03E00100084258
:101C700001003042B4EE600AF1EE10FA1FDBDFF82B
:101C80002C01007802281AD1DFF82401006801280D
:101C900015D1DFF820010068002810D1DFF8180105
:101CA000007803280BD00320DFF8101108701120F2
:101CB000DFF80C1108600021002000F00BFADFF8BB
:101CC000E40090ED000ADFED330A01E001009C42E0
:101CD000B4EE600AF1EE10FA3BDBDFF8C80090EDDD
:101CE000010ADFED2D0AB4EE600AF1EE10FA30DBE6
:101CF000DFF8B00090ED020ADFED280AB4EE600ACA
:101D0000F1EE10FA25DBDFF8A4000078022820D1DC
:101D1000DFF89C00006801281BD1DFF8980001E083
:101D2000010038420068002813D1DFF88C000078E9
:101D300003280ED00320DFF8841001E00100584290
:101D400008701220DFF8781008600021002000F0F1
:101D5000C1F99FED130A10BD0100864201006C42DB
:101D600001006442010074420100704201003C42E3
:101D700080B5FEF77AFBFEF795FBFEF70CFCFEF74D
:101D800041FC01BD010020420100A042010050427F
:101D90000100D0410100A442010048420100B841C5
:101DA0000000000004050020B2BC0020B4BC0020EC
:101DB00050BC002054BC0020B7BC0020B6BC0020A2
:101DC000680500202848006850F000602649086037
:101DD0002648006830F0C0002449086023480068A5
:101DE0002249086070470022C9B2890011F00C0135
:101DF00051F050011E4A116004211E4A1160C0B208
:101E0000B0F10C01042909D2C0B2B0F1080219489E
:101E1000006850F010001749086007E0C0B20200E7
:101E20001448006830F010001249086012F01F00DA
:101E300050F0400010490860704780B50200002053
:101E4000C9B21000C0B2FFF7CEFF0B480068000611
:101E5000FBD50A4800680849096831F08001064A44
:101E6000116080B202BD00003C8004401880044034
:101E700008B003400CB0034000B0034010B0034072
:101E8000010040F10980F446404200F005F851F0AD
:101E900000416047010000BF09D0B0FA80F18840DE
:101EA000C91CC1F58461090501EBD02140057047CB
:101EB000B0B581EA030C0CF0004C40F2FF7515EA56
:101EC00011541DBF15EA1357AC42AF4239E0E41973
:101ED00023EA455343F48013C90241F0004141EA2B
:101EE000505EC7021100A7FB020200284FF000005D
:101EF000EEFB01204FF00001E3FB072118BF42F089
:101F00000102401800214941E3FB0E01A4F5806461
:101F10000F0302D252004041494154F101046CDDEB
:101F2000470872F1004250F1000051EB0451A1F555
:101F300080115CBF41EA0C01B0BD4CEA05510020A4
:101F4000B0BD05EA1357AC4214BFAF4241E050EABE
:101F5000410E1CBF52EA430E02E061460020B0BDB4
:101F600024423C441BD15FEA070EF6D0090302BFAE
:101F700001460020AEF1140EB1FA81F7AEEB070472
:101F800001FA07FE0C37C7F1200100FA07F7C84035
:101F90004EEA000E23EA455343F48013A2E733F0E0
:101FA0000043B3FA83F704BFB2FA82FE77440B3FD3
:101FB000E41BB7F1200E2FBF02FA0EF3BB40C7F1AE
:101FC000200E22FA0EFE38BF43EA0E03BA40641C0C
:101FD00082E750EA410E14BF52EA430E6FF000014F
:101FE0004FF4001717EB430F8ABF194617EB410F49
:101FF000B5E74CEA05510020B0BDD4F10104B4F1BD
:1020000020070FDAC4F12007520828BF42F001026E
:1020100010FA07F501FA07F7E1BF2A43E040384319
:10202000E1400FE0352C98DCC7F1200452EA400271
:1020300020FA07F218BF42F0010231FA07F0A1407E
:102040000A43002172F1004250F1000051EB0C01F3
:10205000B0BDFEE7F446400D40EAC120490006D27B
:1020600000F00EF8004248BF6FF00040604700F0FB
:1020700007F84FF0004188428CBF08464042604755
:1020800040F00040490DA1F58061491C05D4D1F113
:102090001F0154BFC840C01770474FF00000704781
:1020A00080B50023012200216F4801F07FF9002351
:1020B000012211216D4801F079F9002301221D212F
:1020C0006B4801F073F9002301220F21694801F0E8
:1020D0006DF901BD80B5C0B2002808D0012822D01A
:1020E000022858D003283AD0062870D0BBE0C9B2E5
:1020F000002906D15C480068400840005A49086041
:1021000010E0C9B2012906D15748006850F001001B
:102110005549086006E0C9B2022903D1002152489E
:1021200001F088F99FE0C9B2002906D15148006842
:1021300030F400404F49086010E0C9B2012906D1CF
:102140004C48006850F400404A49086006E0C9B2B3
:10215000022903D10F21474801F06CF983E0C9B28D
:10216000002906D14148006830F400303F4908603A
:1021700010E0C9B2012906D13C48006850F4003093
:102180003A49086006E0C9B2022903D11121374853
:1021900001F050F967E0C9B2002906D1344800685F
:1021A00030F000503249086010E0C9B2012906D170
:1021B0002F48006850F000502D49086006E0C9B271
:1021C000022903D11D212A4801F034F94BE0C9B29C
:1021D000002918D12748006830F4004025490860DC
:1021E00021480068400840001F4908601F480068F7
:1021F00030F400301D4908601D48006830F0005080
:102200001B4908602EE0C9B2012918D1194800689D
:1022100050F40040174908601348006850F001006E
:10222000114908601148006850F400300F490860F7
:102230000F48006850F000500D49086012E0C9B224
:1022400002290FD11121094801F0F4F81D21084895
:1022500001F0F0F80021044801F0ECF80F210548E6
:1022600001F0E8F8FFE701BD80F00F4000F00F40FB
:1022700000F10F40C0F00F4070B400230021002295
:102280000020DFF880482478FE2C0FD13A2400E0AB
:10229000641E152C0BDBDFF870585E2606FB04F677
:1022A0003544ED7D002DF3D1230000E03B23DFF822
:1022B0005C482478FE2C10D13A2400E0641E152CD2
:1022C0000CDBDFF844585E2606FB04F6354495F82F
:1022D0002E50002DF2D1210000E03B21DFF83048E4
:1022E0002478FE2C10D13A2400E0641E152C0CDB5F
:1022F000DFF814585E2606FB04F6354495F8455081
:10230000002DF2D1220000E03B223B2B00D0180030
:102310003B2902D0814200DA08003B2A02D08242E7
:1023200000DA1000372800DB3720DFF87C19096855
:10233000814202DBDFF87009006870BC704710B59D
:102340000020DFF8D01708600020DFF8601908606F
:1023500000200AE00021DFF8C02742F82010002109
:10236000DFF8B82742F82010401C3C28F2DB2F2170
:10237000DFF8AC07007817E05A2A04D10123DFF810
:102380009C4744F82030521C5B2A0CDADFF878377F
:102390005E2404FB00F423449B5C002BECD1DFF8AB
:1023A000283843F82020401EDFF820281278824287
:1023B00033DADFF854275E2303FB00F31A44525C40
:1023C000002A0FD1DFF8502702EB80025268012A61
:1023D00000D1491FDFF8442702EB80025268012A2E
:1023E00000D1491D0A0007E0022A04D10123DFF8C9
:1023F000284744F82030521E022A0CDBDFF8083749
:102400005E2404FB00F423449B5C002BECD1DFF83A
:10241000C03743F820200A00B6E700210120DFF88A
:10242000B427107014200BE0DFF8DC265E2303FBDA
:1024300000F31A4492F82F20002A00D1491C401EB4
:102440000B28F1DA032904DB0020DFF88817087075
:1024500003E00220DFF87C170870DFF878070078C7
:10246000002804D1FFF708FFDFF83C180860DFF808
:10247000A806DFF83418096800EB81004069DFF82E
:102480009816DFF82428126801EB82010969081800
:10249000DFF88416DFF81028126801EB8201C968A2
:1024A0000818DFF87416DFF80028126801EB8201C3
:1024B00089680818DFF86016DFF8EC27126801EB6E
:1024C000820149680818042803DB0120DFF844165C
:1024D0000860DFF84806DFF8D017096800EB8100D4
:1024E0004069DFF83816DFF8C027126801EB820177
:1024F000C9680818DFF82416DFF8AC27126801EB6A
:10250000820189680818DFF81416DFF89C27126822
:1025100001EB820149680818DFF80016DFF8882708
:10252000126801EB820109690818042803DB012005
:10253000DFF87817086010BD85B000200021DFF8B3
:10254000681709680F310091DFF85C1709680E31D0
:102550000191DFF8541709680D310291DFF848172F
:1025600009680C310391DFF8401709680B310491B9
:10257000DFF83C17096801290CD1052108E0DFF8D4
:10258000282712688A1810326B4643F82120491E0A
:102590000129F4DADFF87C150968002963D1DFF836
:1025A0000C17096801295ED10020DFF8FC160968C4
:1025B000491D0DE0DFF8182652F821206B4653F82C
:1025C00020309A18DFF8EC3643F82120401C491ED1
:1025D000DFF8D42612688A42ECDBDFF8DC06002143
:1025E0000160DFF8C4060068411D12E0DFF8C40690
:1025F00000EB810090ED000AB8EEC00ADFF8B806E3
:10260000D0ED000A30EE200ADFF8AC0680ED000ABB
:10261000491EDFF8940600688842E7DBDFF8980679
:1026200090ED000AF1EE040A80EE200ADFF8880639
:1026300080ED000ADFF8800690ED000ADFEDB00AB9
:1026400030EE200ADFF8700680ED000ADFF86C0635
:10265000DFF8641609680160DFF86406DFF85C16CD
:102660000968016045E1DFF8AC140968012963D10C
:10267000DFF83816096800295ED10020DFF8281637
:102680000968491D0DE0DFF8402552F821206B460E
:1026900053F82030D21ADFF81C3643F82120401CB2
:1026A000491EDFF8042612688A42ECDBDFF80806D0
:1026B00000210160DFF8F0050068411D12E0DFF83D
:1026C000F40500EB810090ED000AB8EEC00ADFF8D7
:1026D000E805D0ED000A30EE200ADFF8DC0580EDD9
:1026E000000A491EDFF8C00500688842E7DBDFF812
:1026F000C80590ED000AF1EE040A80EE200ADFF82A
:10270000B80580ED000ADFF8B00590ED000ADFEDB6
:102710007C0A30EE200ADFF8A00580ED000ADFF821
:102720009C05DFF8941509680160DFF89405DFF86F
:102730008C1509680160DCE0DFF8D813096801290D
:1027400064D1DFF86815096801295FD1DFF86815E1
:1027500000220A6032212FE0DFF8C02352F8212046
:10276000002A28D1DFF8B02352F82120002A22D1F4
:10277000401CDFF85C2452F82120DFF84C3453F879
:1027800021309A18022392FBF3F2DFF8283543F840
:102790002120DFF8202502EB810292ED000AB8EE3D
:1027A000C00ADFF81425D2ED000A30EE200ADFF867
:1027B000082582ED000A491E1529CDDAC0B200EEC7
:1027C000100AB8EE400ADFF8F004D0ED000A80EEFF
:1027D000800ADFF8E40480ED000ADFF8DC0490ED05
:1027E000000ADFED470A30EE200ADFF8CC0480ED66
:1027F000000ADFF8C804DFF8C01409680160DFF8D8
:10280000C004DFF8B8140968016072E0DFF804035F
:102810000068DFF8981409680843002863D1002095
:10282000DFF884140968491D12E0DFF8A42352F888
:102830002120DFF8943353F821309A18022392FBB9
:10284000F3F2521CDFF86C3443F82120401C491E7F
:10285000DFF8542412688A42E7DBDFF85C040021C9
:102860000160DFF844040068411D12E0DFF8440411
:1028700000EB810090ED000AB8EEC00ADFF83804E2
:10288000D0ED000A30EE200ADFF82C0480ED000ABB
:10289000491EDFF8140400688842E7DBDFF81804FB
:1028A00090ED000AF1EE040A80EE200ADFF8080439
:1028B00080ED000ADFF8000490ED000ADFED100A59
:1028C00030EE200ADFF8F00380ED000ADFF8EC03B9
:1028D000DFF8E41309680160DFF8E403DFF8DC13D4
:1028E0000968016005E0DFF8D403DFF8D413096854
:1028F0000160DFF8C80390ED000A05B070470000E2
:10290000000038C270B400200021012200E0521CF7
:102910001A2A49DADFF8B03253F82230DFF8B04231
:1029200054F822401B1B152BF1DADFF89C3253F8C8
:10293000223009E0744C5E2505FB02F52C44E45C72
:10294000FE2C00D1491C5B1EA14C54F822409C4235
:10295000F0DB0C29DBDB0021130017E09C4C54F862
:102960002240994D55F82250994E56F82260AD1BE1
:10297000022695FBF6F52C19634D5E2606FB03F641
:1029800035442C5DFE2C00D1491C5B1C1F2BE5DB64
:102990001029BCDB002110000021DFF8282911607C
:1029A0000121DFF824291160DFF81C1909680129C9
:1029B00001D1103000E0002070BC7047DFF80C0936
:1029C0000078FE280BD1DFF808090078FE2806D130
:1029D000DFF800090078FE2801D1012000E0002086
:1029E0007047DFF8F4080078FE280BD1DFF8EC0818
:1029F0000078FE2806D1DFF8E8080078FE2801D12B
:102A0000012000E000207047DFF8C00800780028AF
:102A100010D1DFF8BC08007800280BD1DFF8B4082B
:102A20000078002806D1DFF8BC080078002801D122
:102A3000012000E000207047DFF89C0800780028A3
:102A40000BD1DFF898080078002806D1DFF890084D
:102A50000078002801D1012000E00020704730B448
:102A6000002200200021DFF880381B78FE2B0FD1D8
:102A70002D2300E05B1E0B2B0ADBDFF870485E2580
:102A800005FB03F52C4494F82540002CF2D11A00E4
:102A9000DFF85C381B78FE2B0FD12D2300E05B1E86
:102AA0000B2B0ADBDFF844485E2505FB03F52C44BD
:102AB00094F82F40002CF2D11800DFF838381B783A
:102AC000FE2B0FD12D2300E05B1E0B2B0ADBDFF862
:102AD0001C485E2505FB03F52C4494F83940002C76
:102AE000F2D11900121A921C052A07D2091A891C60
:102AF000052903D2002801D0012000E0002030BCCD
:102B000070470000D11C002010070020E81C0020A6
:102B1000FF1C002050BC002060BB002070BA0020C9
:102B2000680400200020DFF8D41708602848DFF888
:102B3000D017096800EB81004069DFF88417496805
:102B4000401ADFF87C170968DFF8B4271268891A81
:102B5000491F90FBF1F000EE100AB8EEC00ADFF852
:102B6000A40780ED000A19201949DFF8942712689C
:102B700001EB82014861DFF888070068001D1DE055
:102B8000134901EB800191ED010AB8EEC00ADFF8AC
:102B900070170968491D091A00EE901AF8EEE00A4C
:102BA000DFF8601791ED001A00EE810ABDEEC00A51
:102BB000074901EB800181ED000A401EDFF8401754
:102BC00009688142DCDB704780B90020690400207D
:102BD00090B80020B4BC00202DE9F041002033491A
:102BE0000860DFF82407DFF81817096800EB810098
:102BF00050F8140CDFF894154968401ADFF88C156A
:102C00000968DFF8FC261268891A491F90FBF1F069
:102C100000EE100AB8EEC00ADFF8E80680ED000A00
:102C20004120DFF8E416DFF8D826126801EB8201B4
:102C30004861DFF8CC06006810F104082CE0DFF8EA
:102C4000C80600EB88004068FFF71AF904000D0081
:102C5000DFF8AC060068401DB0EB0800FFF710F984
:102C60000022DFF8A836FFF723F906000F00DFF88F
:102C70009406006800F02EFC32003B00FFF718F9C4
:102C800022002B0000F04EFCFFF7E4F9DFF8781685
:102C900041F82800B8F10108DFF8640600684045F3
:102CA000CDDBBDE8F08100002002002054BC0020F4
:102CB0005CBC0020A0B700209CB7002098B7002083
:102CC00094B7002080B5FFF73AFB00F061FADFF817
:102CD00040060068643840F25331884221D2DFF860
:102CE000E405006800281CD0DFF8280690ED010AF2
:102CF000DFED720AB4EE600AF1EE10FA11DB01208A
:102D0000DFF814160860FFF7FDFDDFF81016086005
:102D1000DFF808060068002803D10020DFF8F81566
:102D20000860DFF8F4050068012847D1DFF898054E
:102D30000068012842D10120DFF8E4150860DFF8BF
:102D4000E4050068012805D1DFF8DC05DFF8DC15B3
:102D5000016004E0DFF8D005DFF8D4150160FFF76B
:102D60006BFEDFF8D0150860DFF8C80500680128A1
:102D70001FD1DFF8C4050068401CDFF8BC150860EF
:102D8000DFF8B4050068052813DB0020DFF8A8157C
:102D9000086000210220FFF79DF90020DFF82815C8
:102DA00008600020DFF8701508600120DFF88C153E
:102DB0000860DFF8740590ED000AE1E1DFF87C05BA
:102DC000006801282CD1DFF85C050068012805D1D6
:102DD000DFF85405DFF86815016004E0DFF8480506
:102DE000DFF860150160DFF850050068401CDFF86F
:102DF00048150860DFF84005006837280BDB002025
:102E0000DFF8341508600020DFF830150860012075
:102E1000DFF834150860DFF8100590ED000AAFE127
:102E2000DFF824050068012841D1FFF7DAFD00280A
:102E300003D00120DFF814150860DFF810050068E2
:102E4000012834D100210020FFF744F9DFF8D40431
:102E50000068012805D1DFF8D004DFF8F414016020
:102E600004E0DFF8C404DFF8EC140160DFF8C80404
:102E70000068401CDFF8C0140860DFF8BC0400687C
:102E80000A280FDB0020DFF8B01408600020DFF80C
:102E9000B81408600020DFF8881408600020DFF80C
:102EA000AC140860DFF8800490ED000A68E1DFF8F8
:102EB000A8040078032831D10A2002E0FFFF9FC058
:102EC000401CDFF83C140968891D884226DADFF8C7
:102ED0008C1451F82010DFF8842402EB8002526831
:102EE0009142EDD0DFF8781451F820100029E7D195
:102EF000DFF8681401EB800149680129E0D1012164
:102F0000A04A1170A1490860DFF8581451F8200058
:102F10009E4948600020DFF8401408709948007806
:102F2000012824D1FFF758FEDFF80C040068401C8C
:102F3000DFF804140860DFF800040068192816DBC5
:102F40000020DFF8F413086000208E49087001208B
:102F5000DFF8141408600020DFF810140870002057
:102F6000DFF80C1408700120DFF808140860DFF89F
:102F700008040068012828D1DFF8F8030068022857
:102F800023D10020DFF8F01308600020DFF8E413FD
:102F900008600020DFF8D01308600120DFF85C1320
:102FA00008600020DFF8D4130860DFF854030068DD
:102FB00005E06321DFF8502342F82010401CDFF8C1
:102FC00040130968491D8842F3DBDFF89C03006861
:102FD00001280FD1DFF88803D0F8B400012809D107
:102FE000DFF890030068012804D1FFF738FDDFF80F
:102FF00090130860DFF888030068012821DBDFF800
:1030000080030068401CDFF878130860DFF8700365
:10301000006803280BDB0020DFF86413086002203F
:10302000DFF8501308600120DFF84C130860DFF868
:10303000F802DFF820130160DFF8EC0290ED000ADF
:103040009EE0DFF840030078032832D10A2000E038
:10305000401CDFF8AC120968891D884229DADFF8C4
:10306000001351F82010DFF8F82202EB80025268BA
:103070009142EDD0DFF8E41251F820100029E7D199
:10308000DFF8DC1201EB800149680129E0D1012160
:103090003D4A11708A4908609B4951F820008849CF
:1030A00048600020DFF8DC1208700020DFF8BC1256
:1030B000087035480078012816D1FFF733FD9E4887
:1030C0000068401C9C4908609B48006814280BDB82
:1030D00000209949086000202B4908700120A2496E
:1030E0000860002084490870A7480068012819D1A9
:1030F00000209D4908600020A349086000207F4906
:10310000086001209D4908607D48006805E05FF087
:10311000FF31944A42F82010401C79490968491D42
:103120008842F4DB90480068012808D18B48D0F829
:10313000B400002803D1FFF792FC9449086093483B
:103140000068012815DB91480068401C8F49086021
:103150008E480068032805DB00208C4908600120A8
:103160008949086070487A4901606F4890ED000A0B
:1031700006E000F066FBFFF7DFF96B4890ED000A10
:1031800001BD0000AFBC0020B0BC002084B700200F
:1031900010B400200021322261E0704B53F822303D
:1031A0006E4C04EB82046468A3421ED06B4B03EBAD
:1031B00082035B68694C04EB8204A468A34214D1C7
:1031C0006E4B1B680B43002B0FD1664B03EB820346
:1031D0005B68072B01DB002806D0624B53F82230D6
:1031E000072B02DB012800D1401C5D4B53F8223035
:1031F0005B4C04EB82046468A3422FD0584B03EB72
:1032000082035B68564C04EB8204A468A34225D178
:10321000524B53F82230002B20D1504B03EB82034A
:1032200053F8043C002B19D14C4B03EB82035B6831
:10323000324C246823430343002B0FD1324B03EB62
:1032400082035B68592B01DA002906D02E4B53F814
:103250002230592B02DA012900D1491C521E102AB2
:103260009BDA022808D14A4A1278022A04D100299E
:1032700002D101223D4B1A70022908D14449097834
:10328000022904D1002802D102203849087010BC5C
:1032900070471B4800680CE0144980B25E2202FBB4
:1032A00000F211443B4A80B252F8202000238B5494
:1032B000401C80B212490968491D8842ECDB704706
:1032C0008CB700202402002060BC0020671B002077
:1032D000711B00207B1B0020DF1C0020E91C00204C
:1032E000F31C00205D1B002019180020100700208F
:1032F000231800202D180020B3BC002050BC002053
:103300002002002064BC002080B900200000E03FC3
:1033100058BC0020F40500206CBC002068BC0020D4
:1033200080B700200400002098B700200000204251
:10333000000020C278BC002070BC002074BC0020BB
:103340000000F0C10000F0417CBC002080BC0020E7
:1033500000008C4200008CC2B6BC002060BB002084
:1033600070BA002090B800205CBC0020B5BC0020E2
:10337000B2BC002090BC00208CBC002054BC0020BB
:1033800088BC0020B7BC002094BC002084BC002076
:10339000B4BC0020A0B70020012110F01F02914012
:1033A000434A40B2400942F82010704770B4414C83
:1033B000246854F478543F4D2C6005003E4EAD1BFC
:1033C00008D0403D08D0403D08D0403D08D0403DA9
:1033D00008D009E0394C07E0394C05E0394C03E0EE
:1033E000394C01E0394CFFE74FF4807544F8215027
:1033F000D2B2012A15D1426901248C402243426194
:10340000012B06D10268012313FA01F11143016077
:103410000EE00268012313FA01F132EA01010160B2
:1034200006E04269012313FA01F132EA0101416128
:1034300070BC70470268012313FA01F1514001602A
:1034400070472349C0B2421151F82210096910F0A7
:103450001F00C14011F00100704738B5164D401BE8
:1034600008D0403809D040380AD040380BD0403816
:103470000CD00EE0114C3B230BE0114C3C2308E038
:10348000104C3D2305E0104C3E2302E00F4C3F233F
:10349000FFE7D2B2100410F4702050F48070C9B26B
:1034A00044F82100180040B2FFF776FF31BD00005C
:1034B00000E100E03880044000F00F40009004403C
:1034C00000A0044000B0044000C0044000D004400C
:1034D000C00100205FF0FF0C1CEAD05114BF614511
:1034E00006E0C110400721F0E04101F16051704752
:1034F00079B900F0004100020AD0B0FA80FC00FA6D
:103500000CF001F16051A1EB0C5101EBD021400511
:10351000704741020CBF40F4E0016FF00001002051
:103520007047FEE7F0B44FF0004591EA030C44BF4A
:103530006B4000F0CBBF00BF841A71EB030603D2CF
:10354000001BB141121973414FF4001C1CEB410FD9
:1035500034BF7CEB430443E00C0DA4EB1356352E33
:1035600050DC45EAC323DB0A45EAC121C912B6F1A2
:1035700020050DDD63FA05F6EB4086EA03051242ED
:1035800018BF45F00105C01851F100010CD213E03D
:1035900062FA06F5F2405540F3415A40B340F34019
:1035A0005A408018594107D349085FEA30005FEA62
:1035B000350528BF45F0010501F58011420875F178
:1035C000004250F1000041EB0451F0BC4FF4001CEC
:1035D0001CEB410F38BF70470020090D09057047EB
:1035E0001CEB410F10D252EA43060BD0BCEB410F4B
:1035F00005D80C0DAB43661E342EB5DD02E0AB439F
:1036000080185941F0BC7047F0BC7047DFF800F0FB
:10361000BF030020DFF800F0FD030020DFF800F01A
:103620002902002080B5DFF87C070068800425D5DA
:10363000DFF87007006850F40050DFF86817086082
:10364000DFF864070078792804DB0020DFF85817DA
:10365000087029E0BC22DFF85407DFF84C1709781E
:10366000BC23594301440420FFF7D0FFDFF838079B
:103670000078401CDFF83017087015E0DFF82407E9
:103680000068400410D5DFF81C07006850F4804043
:10369000DFF8101708600020DFF80C170870012011
:1036A000DFF824170870FFE701BD0000E0B54DE02A
:1036B00001F022F80023DFF8F80690ED000ABDEED5
:1036C000C00A10EE102ADFF8EC06DFF8EC160978D5
:1036D00009010144DFF8E40602F03EF9DFF8EC16D8
:1036E0000860DFF8DC0690ED000ABDEEC00A10EEBF
:1036F000100AADF80000DFF8C80690ED010ABDEE33
:10370000C00A10EE100AADF80200DFF8B40690ED22
:10371000020ABDEEC00A10EE100AADF80400DFF890
:10372000A40690ED010ADFED360A20EE200ABDEE78
:10373000C00A10EE100AADF80600DFF89406006823
:10374000ADF808000020DFF880160870DFF8780672
:1037500000780028FAD000F055F8DFF8500600F0A5
:1037600067FDDFF870160870DFF86C060068012846
:1037700009D0DFF868060078022804D0DFF85C067C
:103780000078012805D1DFF84C06007800F060FED3
:1037900002E06E2000F05CFEFFF794FADFF84006CE
:1037A00080ED000AFFF775FDFFF734FF00F033FAF4
:1037B00000F05AFADFF820060068012805D0DFF88B
:1037C0001C06007802287FF473AF00F035FF002359
:1037D000DFF80C0690ED000ABDEEC00A10EE102ACC
:1037E000DFF80006DFF8D015097809010144DFF899
:1037F000CC0502F09FF9DFF8D415086071E70000EE
:103800000000C84210B400200021002013E0DFF8BF
:103810009C254FF4BC7303FB00F31A4412F81120EB
:10382000DFF8C4355E2404FB00F423445A54491CD9
:103830005E29ECDB401C3C2801DA0021F8E710BCD3
:10384000704780B5FFF7E0F8002811D0DFF87C075B
:10385000006801280CD1DFF884050078DFF87017C4
:1038600009680843002803D10120DFF870150870AB
:10387000DFF868050078012810D1FFF7B2F80028BA
:103880000CD0DFF848070068DFF8441709680843E0
:10389000002803D10220DFF844150870DFF83C054A
:1038A0000078022810D1FFF7C7F800280CD0DFF805
:1038B0001C070068DFF8181709680843002803D1BF
:1038C0000320DFF818150870DFF8100500780328CA
:1038D00011D1FFF773F800280DD0DFF8F00600686B
:1038E000012808D1DFF8E8060068002803D100208D
:1038F000DFF8E814087001BD00B585B00020ADF810
:103900000C0009220D21DFF8C807FFF7A6FD8A2267
:103910000E21DFF8BC07FFF7A0FD002300220021E5
:10392000DFF8AC07FFF742FD002300220121DFF89A
:10393000A007FFF73BFD002300220221DFF89007DC
:10394000FFF734FD002300220321DFF88407FFF78F
:103950002DFD002300220421DFF87407FFF726FD68
:10396000002300220521DFF86807FFF71FFD002371
:1039700000220621DFF85807FFF718FD0023002278
:103980000721DFF84C07FFF711FD00F02FFA03AA1B
:1039900000215C2000F019FC002840F0C380BDF835
:1039A0000C0041F22431884206D0DFF89C27012127
:1039B000022002F0F7FBFEE7DFF89027012102204A
:1039C00002F0F0FBBC21782000F0ADF8012000F0FF
:1039D000FFF80122AC21B82000F0BCFB4FF4F072DC
:1039E000AD21B82000F0B6FB04222C21B82000F055
:1039F000B1FB8022C221B82000F0ACFB00220F21D5
:103A0000B82000F0A7FB40F201120F21B82000F00F
:103A1000A1FB4FF4C4720721B82000F09BFB0022E9
:103A20007021B82000F096FB40F20332AF21B8209D
:103A300000F090FB0122AC21B82000F08BFB4FF48A
:103A4000F072AD21B82000F085FB3222AB21B82006
:103A500000F080FB45F62002B021B82000F07AFB90
:103A600040F203321C21B82000F074FB42F62E52C3
:103A70001321B82000F06EFB40F2C7322021B8209D
:103A800000F068FB10222421B82000F063FB032221
:103A90002B21B82000F05EFB03222F21B82000F07C
:103AA00059FB40F2BB120821B82000F053FB40F252
:103AB000D9120921B82000F04DFB64220A21B82058
:103AC00000F048FB1A223221B82000F043FBE82224
:103AD0000B21B82000F03EFB40F203120F21B8206A
:103AE00000F038FB2522A521B82000F033FB48F276
:103AF00010023521B82000F02DFB03220C21B82044
:103B000000F028FB81200290BC2001900020009052
:103B10006C23DFF89822DFF838160420FFF77EFDCB
:103B200005B000BDFEE738B504000D000222ADB2BD
:103B3000A800B0F53C7F0DDCA4B2A000B0F5F07F8A
:103B400008DCADB2AD00A4B2A40052F0020252F003
:103B5000080211E0ADB26800B0F53C7F0CDCA4B205
:103B60006000B0F5F07F07DCADB26D00A4B2640078
:103B700052F0010252F0040252F0300292B20D21D2
:103B8000B82000F0E7FA2A0092B20421B82000F031
:103B9000E1FA220092B20321B82000F0DBFAADB2C4
:103BA000D5F53C70022190FBF1F0421C92B201214C
:103BB000B82000F0CFFAA4B2D4F5F070022190FB47
:103BC000F1F0021D92B20221B82000F0C3FA31BD1B
:103BD00010B582B004000020ADF800006A46AF21A5
:103BE000B82000F0F2FAE4B2002C09D0BDF80000D1
:103BF00050F0030292B2AF21B82000F0ABFA09E016
:103C0000BDF800004FF6FC7111EA0002AF21B820A8
:103C100000F0A0FA13BD00200021002000E0401CAD
:103C20003C2820DA002109E0DFF8FC25BC2303FB57
:103C300000F31A44002322F81130491C5E29EEDA01
:103C4000DFF8E8255E2303FB00F31A44525CFE2AEA
:103C5000EAD1DFF8D425BC2303FB00F31A44012387
:103C600022F81130E9E7704738B50024002500201C
:103C7000082487E00020DFF8B015E4B2BC2202FB84
:103C800004F21144EDB231F81510002901D050F0C2
:103C90000100DFF89415E4B2BC2202FB04F21144E7
:103CA000EDB201EB4501B1F8BC10002901D050F094
:103CB0000200DFF87415E4B2BC2202FB04F21144E6
:103CC000EDB201EB4501B1F87811002901D050F0B7
:103CD0000400DFF85415E4B2BC2202FB04F21144E4
:103CE000EDB201EB4501B1F83412002901D050F0DA
:103CF0000800DFF83415E4B2BC2202FB04F21144E0
:103D0000EDB201EB4501B1F8F012002901D050F0FD
:103D10001000DFF81415E4B2BC2202FB04F21144D7
:103D2000EDB201EB4501B1F8AC13002901D050F020
:103D30002000DFF8F414E4B2BC2202FB04F21144C8
:103D4000EDB201EB4501B1F86814002901D050F043
:103D50004000DFF8D414E4B2BC2202FB04F21144A8
:103D6000EDB201EB4501B1F82415002901D050F066
:103D70008000C0B202F094F86D1CEDB25E2DFFF62B
:103D800079AF0834E4B2382C0ADAE4B2082094FBA4
:103D9000F0F0411CC9B2122002F010F90025ECE746
:103DA00031BD0000A0C00440A7BC0020181D0020A9
:103DB00058B7002018010020A4BC0020B405002042
:103DC00004050020F4050020A8BC002050060020B7
:103DD00038060020A6BC002068B70020A9BC00203F
:103DE00098B70020880000201007002080B500232D
:103DF00001220021DFF8B006FFF7D8FA00230122E4
:103E00000121DFF8A406FFF7D1FA01BD0000000090
:103E10000020002001E000BF401CC0B26428FADB93
:103E2000704780B5DFF87806006850F00200DFF8D0
:103E300070160860DFF86806006850F00100DFF8CF
:103E400060160860FFF7E4FFDFF85C06006850F0DA
:103E50000100DFF854160860DFF84C06006850F0E7
:103E60000200DFF844160860FFF7D2FFDFF83806DB
:103E7000006840084000DFF830160860FFF7C8FF10
:103E8000DFF82406006830F00200DFF81C16086036
:103E9000FFF7BEFF01BD80B5DFF80406006850F0F3
:103EA0000200DFF8FC150860DFF8F405006850F048
:103EB0000100DFF8EC150860FFF7AAFFDFF8E8055E
:103EC000006840084000DFF8E0150860FFF7A0FF39
:103ED000DFF8D405006850F00200DFF8CC15086068
:103EE000FFF796FFDFF8C005006850F00100DFF82B
:103EF000B8150860FFF78CFF01BD000038B504005D
:103F0000DFF89C05006850F00100DFF894150860A8
:103F100000251FE0DFF89005006840084000DFF84A
:103F2000881508606400FFF773FFDFF87C05006800
:103F300050F00200DFF870150860FFF769FFDFF846
:103F40006805006830F00200DFF85C150860FFF7D4
:103F50005FFF6D1CEDB2082D0ADA2006DAD5DFF816
:103F60004805006850F00100DFF83C150860D9E70B
:103F7000DFF83405006850F00100DFF82C15086008
:103F8000DFF81C05006840084000DFF814150860E1
:103F9000FFF73EFFDFF81005006850F00200DFF881
:103FA00008150860FFF734FFDFF8F804006810F028
:103FB0000104DFF8F404006830F00200DFF8E814D0
:103FC0000860FFF725FF2000C0B232BD7006002058
:103FD00080B7002038B5DFF8C804006850F0020050
:103FE000DFF8BC140860DFF8B8040068400840003F
:103FF000DFF8AC140860002519E0DFF8AC040068B5
:1040000030F00200DFF8A0140860FFF701FFDFF8CE
:104010009804006850F00200DFF88C140860FFF785
:10402000F7FEDFF880040068400864416D1CEDB2C3
:10403000082DE2DBDFF87004006830F00200DFF8E2
:1040400068140860DFF85804006850F00100DFF8D9
:1040500050140860FFF7DCFE2000C0B232BD80B50E
:10406000DFF83C04006850F00200DFF83414086008
:10407000DFF82C04006850F00100DFF82414086019
:10408000DFF82404006830F00200DFF81C14086038
:10409000DFF81404006840084000DFF80C140860E2
:1040A000FFF7B6FEDFF80004006850F00200DFF80A
:1040B000F8130860FFF7ACFEDFF8EC03006830F09F
:1040C0000200DFF8E4130860FFF7A2FE01BD000064
:1040D000C0F00F4080B5DFF8C803006850F0020060
:1040E000DFF8BC130860DFF8B803006850F0010087
:1040F000DFF8AC130860DFF8B003006830F00200AE
:10410000DFF8A4130860FFF783FEDFF89C03006864
:1041100050F00100DFF890130860FFF779FEDFF838
:104120008803006850F00200DFF87C130860FFF796
:104130006FFEDFF87403006830F00200DFF86813E8
:104140000860FFF765FE01BDACA40010B4A4001028
:10415000D0F00F402DE9F04104000D0016000027BB
:1041600000E07F1CFFB2032F2DDAFFF75AFE20007C
:10417000C0B2FFF7C3FE80465FFA88F8B8F1010FBE
:10418000EFD02800C0B2FFF7B9FE80465FFA88F88A
:10419000B8F1010FE5D0300080B2000AC0B2FFF7DD
:1041A000ADFE80463000C0B2FFF7A8FE80465FFA41
:1041B00088F8B8F1010FD4D0FFF76DFE5FFA88F8E8
:1041C000B8F1000FCDD1BDE8F081F8B504000D00C5
:1041D000160000276400FFF724FE2000C0B2FFF79E
:1041E0008DFEC7192800C0B2FFF788FEC719FFF778
:1041F00018FE601CC0B2FFF781FEC719FFF7EAFE88
:104200003080FFF72CFF308800023080FFF7E2FE9D
:10421000318851FA80F03080FFF75CFFFFF73BFEFA
:104220003800C0B2F2BD0000408B0020387500207D
:104230002DE9F84F2DED0A8BC4B05FF000095FF057
:104240000008002700255FF0000B5FF0000A002146
:104250008DF80810002604E0002103AA36B291551B
:10426000761C36B2FF2EF7DD002615E003AABC232C
:1042700016FB03F3034409B25B5C03ACBC2516FBDD
:1042800005F5054409B26D5C645D641CD454491C99
:1042900009B2BC29EADB761C36B2782E01DA00219D
:1042A000F6E7002000E0401C00B2FF2804DC03A970
:1042B00000B2095C0029F6D0FF2400E0641E010072
:1042C000220009B212B2914204DA03A900B2095CD9
:1042D0000029F3D02100020009B212B2914202D1AA
:1042E0002000C0B2AFE000B2411C24B2A14201D113
:1042F000C0B2A8E0060005E003A936B2895D59FA0C
:1043000081F9761C2100320009B212B29142F3DA2F
:104310000025060006E003A936B2895D36B206FB29
:104320000155761C2100320009B212B29142F2DA34
:104330009FED5ECB06007DE003A836B2805D58FAA3
:1043400080F8B9EB080A4046FDF7A4FDCDE900016D
:104350004846FDF79FFD02000B00DDE9000101F07A
:104360005FFF41EC180B5046FDF78AFDCDE90001D7
:104370004846FDF78FFD02000B00DDE9000101F06A
:104380004FFF41EC190B03A836B2805D36B206FB35
:104390000077B5EB070B3800FDF77CFDCDE9000198
:1043A0004046FDF777FD02000B00DDE9000101F05A
:1043B00037FF41EC1A0B5846FDF762FDCDE90001CD
:1043C0005046FDF75DFD02000B00DDE9000101F044
:1043D00027FF41EC1B0B53EC182B51EC190BFDF78D
:1043E00067FD82468B4651EC1A0B53EC1B2B00F0F9
:1043F00063F852465B46FDF75BFD82468B4651EC07
:104400001A0B53EC1B2B00F057F852465B46FDF796
:104410004FFD41EC180B51EC1C0B53EC182B02F028
:104420002BF806D2B0EE48CAF0EE68CA30008DF81C
:104430000800761C3000210000B209B28842FFF665
:104440007BAF9DF8080044B0BDEC0A8BBDE8F28F4D
:1044500030B400210022002100E0491C3C291DDA73
:10446000002207E00023134C5E2505FB01F52C44D8
:10447000A354521C5E2AF0DA0E4B5E2404FB01F4B6
:1044800023449B5C0400E4B2A342EBD3FE23094C1B
:104490005E2505FB01F52C44A354EAE730BC7047C8
:1044A00014F10F4010F10F4000F10F400000000028
:1044B0000000F0BF10070020F0B44FF0004591EA73
:1044C000030F44BF6B40FFF737B800BF841A71EB8E
:1044D000030604D26E40001BB141121973414FF420
:1044E000001C1CEB410F34BF7CEB430684E00C0D39
:1044F000A4EB1356362E7DDC012E43DC45EAC323A4
:1045000043EA525312BFD20292025B08240545EAE5
:10451000C12141EA5051D2EBC020994125D407D1A5
:10452000B0FA80F610FA06F164D00020203608E0D8
:10453000B1FA81F6B140C6F1200220FA02F211432D
:10454000B0404FEAF474B4EB465434F001064FEA3D
:1045500074040AD8D6F50016760D04F00044F04035
:1045600061FA06F25040F1404840C00A40EA41502A
:1045700021F0004128BF5FEA500550F1000044EBF4
:10458000D12137E045EAC323DB0A45EAC121C90A44
:10459000B6F120050EDD42EA0242120CC5F12006FA
:1045A00003FA06F6EB4042EA06056D42984161F1D6
:1045B00000010DE062FA06F5F240554063FA06FC90
:1045C00082EA0C02F3405A406D42904161EB0301D4
:1045D00011F4801F05D1641E620502D06D004041B8
:1045E000494121F48011430875F1004350F1000066
:1045F00041EB0451F0BC70471CEB410F15D223F086
:10460000004352EA43060BD04FEA4C0CBCEB410F7F
:1046100004D80C0D661E342EB7DDEBE7801A9941E5
:1046200050EA410608BF0021E4E708BF1CEB430F36
:1046300028BF6FF00001DDE7DFF82404006865287B
:1046400004DA0020DFF81C14087054E0DFF81004CE
:1046500000686538132804D20120DFF808140870B8
:1046600049E0DFF8FC03006878380A2804D2022009
:10467000DFF8F01308703EE0DFF8E40300688238EA
:104680000A2804D20320DFF8DC13087033E0DFF8D7
:10469000D0030068972809DBDFF8C40300688C2882
:1046A00004DB0420DFF8BC13087024E0DFF8B0035B
:1046B000006896380A2804D20520DFF8A81308708D
:1046C00019E0DFF89C030068A0380A2804D206200D
:1046D000DFF8901308700EE0DFF884030068AA3852
:1046E0000A2804D20720DFF87C13087003E00820B2
:1046F000DFF8701308707047DFF86C0390ED000A64
:10470000F3EE040AB4EE600AF1EE10FA0DD5DFF80C
:10471000580390ED000AB5EE400AF1EE10FA04DB02
:104720000020DFF84013087081E1DFF83C0390EDD2
:10473000000AF3EE040AB4EE600AF1EE10FA0DDBA3
:10474000C94890ED000AF3EE0E0AB4EE600AF1EEED
:1047500010FA03D50120C349087068E1C24890ED02
:10476000000AF3EE0E0AB4EE600AF1EE10FA0DDB69
:10477000BD4890ED000ADFEDAE0AB4EE600AF1EE3E
:1047800010FA03D50220B749087050E1B64890ED01
:10479000000ADFEDA70AB4EE600AF1EE10FA0DDBB5
:1047A000B14890ED000ADFEDA30AB4EE600AF1EE25
:1047B00010FA03D50320AB49087038E1AA4890ED00
:1047C000000ADFED9C0AB4EE600AF1EE10FA0DDB90
:1047D000A54890ED000ADFED980AB4EE600AF1EE0C
:1047E00010FA03D504209F49087020E19E4890EDFF
:1047F000000ADFED910AB4EE600AF1EE10FA0DDB6B
:10480000994890ED000ADFED8D0AB4EE600AF1EEF2
:1048100010FA03D505209349087008E1924890EDFD
:10482000000ADFED860AB4EE600AF1EE10FA0DDB45
:104830008D4890ED000ADFED820AB4EE600AF1EED9
:1048400010FA03D5062087490870F0E0864890EDFD
:10485000000ADFED7B0AB4EE600AF1EE10FA0DDB20
:10486000814890ED000ADFED770AB4EE600AF1EEC0
:1048700010FA03D507207B490870D8E07A4890EDFC
:10488000000ADFED700AB4EE600AF1EE10FA03DB05
:10489000082074490870CAE0734890ED000AB5EE2C
:1048A000400AF1EE10FA0DD56F4890ED000AFBEECC
:1048B000040AB4EE600AF1EE10FA03DB0020694945
:1048C0000870B4E0684890ED000AFBEE040AB4EE0C
:1048D000600AF1EE10FA0DD5634890ED000AFBEE88
:1048E0000E0AB4EE600AF1EE10FA03DB01205D4916
:1048F00008709CE05C4890ED000AFBEE0E0AB4EEF6
:10490000600AF1EE10FA0DD5574890ED000ADFED80
:104910004E0AB4EE600AF1EE10FA03DB02205149B0
:10492000087084E0504890ED000ADFED470AB4EECD
:10493000600AF1EE10FA0DD54B4890ED000ADFED5C
:10494000430AB4EE600AF1EE10FA03DB0320454996
:1049500008706CE0444890ED000ADFED3C0AB4EECC
:10496000600AF1EE10FA0DD53F4890ED000ADFED38
:10497000380AB4EE600AF1EE10FA03DB042039497C
:10498000087054E0384890ED000ADFED310AB4EECB
:10499000600AF1EE10FA0DD5334890ED000ADFED14
:1049A0002D0AB4EE600AF1EE10FA03DB05202D4962
:1049B00008703CE02C4890ED000ADFED260AB4EECA
:1049C000600AF1EE10FA0DD5274890ED000ADFEDF0
:1049D000220AB4EE600AF1EE10FA03DB0620214948
:1049E000087024E0204890ED000ADFED1B0AB4EEC9
:1049F000600AF1EE10FA0DD51B4890ED000ADFEDCC
:104A0000170AB4EE600AF1EE10FA03DB072015492D
:104A100008700CE0144890ED000ADFED100AB4EEC7
:104A2000600AF1EE10FA02D508200E4908707047AE
:104A300000002042000048420000704200008C420A
:104A40000000A0420000B442000020C2000048C2A2
:104A5000000070C200008CC20000A0C20000B4C2FE
:104A60003C060020A4BC002058B7002038B52DED2E
:104A7000028BDFF89C070078002800F0818200207C
:104A8000DFF88C170870DFF88C17DFF88C0701F05F
:104A9000CCFD01F04DFEDFF8140D006801280AD0AE
:104AA000DFF80C0D0078012805D0DFF8040D007840
:104AB000022840F0E380DFF8FC0C90ED010AF9EEEB
:104AC000000AB4EE600AF1EE10FA27DBDFF8E80C1A
:104AD0004368DFF8140C90ED010AF2EE040A20EEB0
:104AE000200ABDEEC00A10EE102ADFF8001CDFF825
:104AF000000C00F0D9FEDFF8FC1B09684018DFF855
:104B0000F41B086040F2DC52DFF8881DDFF8E40B8C
:104B1000006800F0CDFBDFF8DC1B0860DFF8940CC8
:104B200090ED010AF9EE000AB4EE600AF1EE10FA17
:104B300032D5DFF8800C90ED010AF9EE040AB4EEEC
:104B4000600AF1EE10FA27DBDFF86C0C4368DFF83F
:104B5000980B90ED010AF2EE040A20EE200ABDEE59
:104B6000C00A10EE102ADFF8841BDFF8840B00F077
:104B70009BFEDFF8801B09684018DFF8781B08608F
:104B80004FF4FA62DFF8101DDFF8680B006800F0E0
:104B90008FFBDFF8601B0860DFF8180C90ED010A4E
:104BA000F9EE040AB4EE600AF1EE10FA32D5DFF83D
:104BB000040C90ED010ADFEDD60AB4EE600AF1EEC6
:104BC00010FA27DBDFF8F00B4368DFF81C0B90EDE1
:104BD000010AF2EE040A20EE200ABDEEC00A10EE31
:104BE000102ADFF8081BDFF8080B00F05DFEDFF885
:104BF000041B09684018DFF8FC1A086040F6B83258
:104C0000DFF8981CDFF8EC0A006800F051FBDFF8D1
:104C1000E41A0860DFF89C0B90ED010AF9EE080A2F
:104C2000B4EE600AF1EE10FA50D5DFF88C0B436851
:104C3000DFF8B40A90ED010AF2EE040A20EE200A31
:104C4000BDEEC00A10EE102ADFF8A01ADFF8A00AA5
:104C500000F02AFEDFF89C1A09684018DFF8941A61
:104C6000086040F6AC52DFF8381CDFF8880A0068AC
:104C700000F01EFBDFF87C1A086027E0DFF8380B35
:104C80004368DFF8640A90ED010AF2EE040A20EEB0
:104C9000200ABDEEC00A10EE102ADFF8501ADFF825
:104CA000500A00F001FEDFF84C1A09684018DFF8DE
:104CB000441A086042F22832DFF8601CDFF8340A38
:104CC000006800F0F5FADFF82C1A0860DFF8D40B62
:104CD0000078002800F0B080DFF8D00A00680128D2
:104CE00009D0DFF8CC0A0078012804D0DFF8C00A28
:104CF0000078022850D1DFF8280C0068DFF8241C67
:104D00000860DFF8240C0068DFF8EC1D096801FB7F
:104D100000F3DFF8D40990ED020ADFEDD30A20EEAC
:104D2000200ABDEEC00A10EE102ADFF8001CDFF8E2
:104D3000000C00F073FADFF8E81B0860DFF8E00B06
:104D40000068FDF79DF85FF06632DFF8E83BFDF79D
:104D5000AFF804000D00DFF8CC0B0068FDF790F809
:104D60005FF03332DFF8D03BFDF7A2F822002B00D2
:104D7000FEF7D8FBFDF76EF9DFF8A41B086040F6DC
:104D8000B832DFF8181BDFF8980B006800F090FAD3
:104D9000DFF88C1B08604FE0DFF8840B0068DFF859
:104DA000841B0860DFF8800B0068DFF84C1D096881
:104DB00001FB00F3DFF8300990ED020ADFEDAA0AEB
:104DC00020EE200ABDEEC00A10EE102ADFF86C1BA0
:104DD000DFF85C0B00F022FADFF8441B0860DFF814
:104DE000400B0068FDF74CF85FF06632DFF8443B9B
:104DF000FDF75EF804000D00DFF8280B0068FDF7F2
:104E00003FF85FF03332DFF8303BFDF751F8220016
:104E10002B00FEF787FBFDF71DF9DFF8041B086088
:104E200040F6B832DFF8741ADFF8F40A006800F0D0
:104E30003FFADFF8EC1A0860DFF8040B0068FDF7B2
:104E40001FF85FF03332DFF8F03AFDF731F8040075
:104E50000D00DFF8CC0A0068FDF712F85FF066324B
:104E6000DFF8D03AFDF724F822002B00FEF75AFBBA
:104E7000FDF7F0F8DFF8C81A0860DFF87808006876
:104E8000DFF8BC1A09680818DFF8701C0860DFF842
:104E900064080068DFF8A81A0968401ADFF8641C83
:104EA000086042F22832DFF8741ADFF8500C00680C
:104EB00000F0FEF9DFF8441C086042F22832DFF807
:104EC0005C1ADFF8400C006800F0F2F9DFF8341CDF
:104ED0000860DFF8340C0078002808D0DFF8240CD4
:104EE0000168DFF8180C006800F006FC1BE0DFF832
:104EF0001C0C0078002812D0DFF8140C006815286C
:104F000008DBDFF89819DFF8940900F0F5FB0AE0F8
:104F1000FFFFBFC00021002000F0EEFB03E00021F6
:104F2000002000F0E9FBDFF8EC0B8068FEF7D2FA16
:104F300041EC110BB0EE418AF0EE618ADFF8D40B40
:104F40000068FEF7C7FA41EC100BB0EE481AF0EE1D
:104F5000681A01F093FF53EC102B93F000430020EC
:104F6000DFF8B41BFCF7A4FF5FF0C042DFF8AC3BF6
:104F700001F056F901F08CFF00EE100A01F028FD57
:104F8000DFF89C0B0078002874D00020DFF8901B1D
:104F9000087000F096F9DFF814080068012829D19C
:104FA000DFF8800B90ED010ABDEEC00A10EE103A5A
:104FB000DFF8000890ED010ADFED2B0A20EE200A51
:104FC000BDEEC00A10EE102ADFF85C1BDFF85C0BA8
:104FD00000F024F9DFF8E017486040F2DC52DFF817
:104FE000B418DFF8D407406800F062F9DFF8C8179A
:104FF000486028E0DFF82C0B90ED010ABDEEC00AF6
:1050000010EE103ADFF8AC0790ED010ADFED160A5A
:1050100020EE200ABDEEC00A10EE102ADFF8101BA9
:10502000DFF8080B00F0FAF8DFF88C17486040F260
:10503000DC52DFF86018DFF88007406800F038F9CC
:10504000DFF874174860DFF86C0790ED010AFAEE9C
:10505000020AB4EE600AF1EE10FA07D50120DFF87B
:10506000501C086006E000BF0000C8420020DFF8C6
:10507000401C0860DFF83C0C0078002800F0C48079
:10508000DFF828070068012809D0DFF82407007836
:10509000012804D0DFF81807007802282FD100205B
:1050A000DFF8101C0870DFF8100C0368DFF8600AE6
:1050B0000268DFF8081CDFF8080C00F0AFF8404287
:1050C00000EE100AB8EEC00ADFF8580A80ED010AB7
:1050D0004FF4E1624FF49671DFF8480A90ED010A4F
:1050E000BDEEC00A10EE100A00F0E2F800EE100A61
:1050F000B8EEC00ADFF82C0A80ED010A2AE0DFF8DA
:10510000B80B0368DFF8080A0268DFF8B81BDFF89D
:10511000B00B00F083F8404200EE100AB8EEC00A6F
:10512000DFF8000A80ED010ADFF89C2BDFF8681732
:10513000DFF8F00990ED010ABDEEC00A10EE100A8A
:1051400000F0B6F800EE100AB8EEC00ADFF8D40995
:1051500080ED010ADFF8740B006801282AD1DFF81E
:10516000580B0368DFF8A8090268DFF8581BDFF85E
:10517000500B00F053F8404200EE100AB8EEC00A9F
:10518000DFF8A00980ED010ADFF83C2BDFF80417F7
:10519000DFF8900990ED010ABDEEC00A10EE100A8A
:1051A00000F086F800EE100AB8EEC00ADFF87409C5
:1051B00080ED010ADFF840090068FCF761FEDFF8C6
:1051C000282CDFF8283CFCF773FE04000D00DFF804
:1051D00040090068FCF754FEDFF8142CDFF8143C9B
:1051E000FCF766FE22002B00FEF79CF9FCF732FF6D
:1051F000DFF804190860DFF800090068282803DADE
:105200002820DFF8F4180860BDEC028B31BD0000E7
:105210009CBC00201C0600200C06002010B49B1A29
:1052200000EE103AB8EEC00AD1ED010A90ED001A76
:1052300000EE201A80ED001A90ED000AD1ED030A6D
:10524000B4EE600AF1EE10FA02DBCC68046010E004
:1052500091ED030AB1EE400AD0ED000AB4EE600A07
:10526000F1EE10FA05DB91ED030AB1EE400A80ED94
:10527000000A00EE103AB8EEC00AD1ED000A90ED37
:10528000001A00EE201A44681C1B00EE104AB8EE0B
:10529000C00AD1ED020A00EE201ABDEEC10A10EEDE
:1052A000101A446884604360C260080010BC7047F4
:1052B000904201DB100003E0814201DB0800FFE7C0
:1052C000704738B5DFF8300B01F0A7FFDFF82C1B73
:1052D0000860DFF8240B01F0DBFFDFF8200B00682B
:1052E0004042DFF8181B0860DFF8140B01F095FF4F
:1052F000DFF8101B0860DFF8080B01F0C9FFDFF8CA
:10530000040B0068DFF8FC1A0860DFF8F00A006898
:10531000DFF8F41A0860DFF8F00A0068DFF8EC1A2A
:105320000968401ADFF8E81A0860DFF8E40A006844
:10533000652803DB0120DFF8DC1A0870DFF8780944
:105340000068C830DFF8C01A0968884203DA022012
:10535000DFF8C01A0870DFF8B00A006810F5AF7FF8
:1053600003DAFF20DFF8AC1A0870DFF8A80A00782B
:10537000002816D0DFF8980A0068652811DADFF8EF
:10538000880A0068DFF830190968C831884208DAED
:10539000DFF8740A0068012803DB0020DFF8741AC4
:1053A0000870DFF8700A0078002827D1DFF8580A63
:1053B0000068FCF765FDDFF8382ADFF8383AFCF7BB
:1053C00077FD04000D00DFF8440A0068FCF758FD83
:1053D000DFF8142ADFF8143AFCF76AFD22002B00EC
:1053E000FEF7A0F8FCF736FEDFF81C1A0860DFF8BD
:1053F000180A0068DFF8141A086024E0DFF8080AC9
:105400000068FCF73DFD0022DFF80C3AFCF750FD88
:1054100004000D00DFF8F4090068FCF731FD0022FC
:10542000DFF8F439FCF744FD22002B00FEF77AF890
:10543000FCF710FEDFF8D0190860DFF8CC0900682F
:10544000DFF8C8190860DFF8BC090068DFF8CC197C
:105450000860DFF8C8090068DFF8C4190968401A55
:10546000DFF8C0190860DFF8BC090068652803DBB5
:105470000120DFF8B4190870DFF83C080068C83074
:10548000DFF898190968884203DA0220DFF89819D2
:105490000870DFF88809006810F5AF7F03DAFF2095
:1054A000DFF884190870DFF880090078002816D02A
:1054B000DFF870090068652811DADFF86009006814
:1054C000DFF8F4170968C831884208DADFF84C09B8
:1054D0000068012803DB0020DFF84C190870DFF8B2
:1054E00048090078002827D1DFF830090068FCF768
:1054F000C7FCDFF8FC28DFF8FC38FCF7D9FC040017
:105500000D00DFF81C090068FCF7BAFCDFF8D828AA
:10551000DFF8D838FCF7CCFC22002B00FEF702F8AD
:10552000FCF798FDDFF8F4180860DFF8F008006871
:10553000DFF8EC18086024E0DFF8E0080068FCF70A
:105540009FFC0022DFF8D038FCF7B2FC04000D000D
:10555000DFF8CC080068FCF793FC0022DFF8B838CD
:10556000FCF7A6FC22002B00FDF7DCFFFCF772FD28
:10557000DFF8A8180860DFF8A4080068DFF8A018B2
:105580000860DFF8A4080078002804D0DFF8840859
:105590000078002813D1DFF890080078002804D0A4
:1055A000DFF864080068142809DBDFF86808007871
:1055B000002819D0DFF864080068142814DADFF82E
:1055C0006C080068401CDFF864180860DFF85C08AD
:1055D000006828280CDB0020DFF850180860002045
:1055E000DFF82415087003E00020DFF828180870A1
:1055F000DFF83408007800280BD0DFF818080078AE
:10560000002806D0DFF8B0060068DFF8041508604F
:1056100042E0DFF814080078002815D0DFF898067B
:105620000068DFF8E4170968884206DADFF88806C0
:105630000068DFF8DC1408602EE0DFF8CC070068B3
:10564000DFF8CC14086027E0DFF8C80700780028EE
:1056500015D0DFF864060068DFF8C01709688842D3
:1056600006DADFF854060068DFF8A414086013E0D7
:10567000DFF8A8070068DFF8981408600CE0DFF88E
:105680009C070068DFF8801709680818022190FB62
:10569000F1F0DFF87C140860DFF874040068FCF7B0
:1056A000EFFBDFF84C27DFF84C37FCF701FC040078
:1056B0000D00DFF87C070068FCF7E2FBDFF8282725
:1056C000DFF82837FCF7F4FB22002B00FDF72AFF58
:1056D000FCF7C0FCDFF838140860DFF83404006819
:1056E000DFF84C17086031BDDC0500207800002091
:1056F000940500204406002038B504000D00002C5D
:1057000014D442F2283200212000FFF7D1FD04001A
:1057100000220021DFF81C0701F0F9FC220092B200
:105720000121DFF8100701F0F2FC13E042F2283209
:1057300000216042FFF7BCFD040000220121DFF8D8
:10574000F40601F0E4FC220092B20021DFF8E40646
:1057500001F0DDFC002D14D442F228320021280093
:10576000FFF7A6FD050000220321DFF8C80601F0BF
:10577000CEFC2A0092B20221DFF8B80601F0C7FC85
:1057800013E042F2283200216842FFF791FD050044
:1057900000220221DFF89C0601F0B9FC2A0092B237
:1057A0000321DFF8900601F0B2FC31BD68B700209C
:1057B000A9BC0020F40500202C060020DFF87806A4
:1057C0000078002815D002281DD017D3042824D033
:1057D0001ED306282BD025D3082832D02CD30A2854
:1057E00039D033D30C2840D03AD30E2847D041D3F8
:1057F0004AE07820DFF8C014086049E08220DFF832
:10580000B814086044E08C20DFF8AC1408603FE076
:105810009620DFF8A41408603AE09B20DFF8981483
:10582000086035E0A020DFF89014086030E0A52083
:10583000DFF8841408602BE0AA20DFF87C140860ED
:1058400026E0AF20DFF87014086021E0B420DFF814
:10585000681408601CE0B920DFF85C14086017E0E9
:10586000BE20DFF85414086012E0C320DFF84814AB
:1058700008600DE0C820DFF84014086008E0D2207E
:10588000DFF83414086003E00020DFF82C1408600F
:105890007047000024FAFFFF30F8FFFF48F4FFFFD5
:1058A00054F2FFFF9DBC002030B49B1A44681C1BBF
:1058B00000EE104AB8EEC00AD1ED000A20EE200A30
:1058C00000EE903AF8EEE00A91ED011A00EE810A3E
:1058D0004468B3EB440485682C1900EE904AF8EE56
:1058E000E00A91ED021A00EE810ABDEEC00A10EE48
:1058F000101A446884604360C260080030BC70477E
:10590000DFF83805002141600020DFF834154860D9
:105910000020DFF82C15886070470000D8DCFFFFFE
:1059200048060020540600205006002018000020E1
:10593000A40500206666E63F3333D33F48000020CD
:105940004C0600200021016000214160002181609F
:105950000021C160704700002DE9F84F060088461D
:105960009FED670A9F1A3068FDF7B4FD04000D0033
:105970003800FCF785FADFF8CC24DFF8CC34FCF7EC
:1059800097FA22002B00FDF7CDFD01F081FA30607F
:1059900096ED000AD8ED030AB4EE600AF1EE10FAB3
:1059A00003DBD8F80C00306010E098ED030AB1EE8C
:1059B000400AD6ED000AB4EE600AF1EE10FA05DBFB
:1059C00098ED030AB1EE400A86ED000A07FB07F0E6
:1059D000FCF756FADFF86C24DFF87034FCF768FA4D
:1059E00004000D00D8F80000FDF774FD02000B0064
:1059F0002000290000F014FC04000D00D8F8040079
:105A0000FDF768FD22002B00FDF78CFD01F040FA48
:105A100000EE100ADFF838040078012823D107FBD4
:105A200007F0FCF72DFADFF81C24DFF82834FCF728
:105A30003FFA04000D00D8F80000FDF74BFD02000E
:105A40000B002000290000F0EBFB04000D00D8F84B
:105A50000400FDF73FFD22002B00FDF763FD01F080
:105A600017FA00EE100A00EE907AF8EEE00A20EE47
:105A7000800A10EE100AFDF72DFD82468B46D8F8FD
:105A80000800FDF727FD804689463800FCF7F8F945
:105A9000DFF85423DFF8C033FCF70AFA04000D00E6
:105AA0007068FCF7EDF9DFF84023DFF8B033FCF75E
:105AB000FFF922002B00FDF735FD04000D00706892
:105AC000FCF7DEF902000B0020002900FEF7F4FCD1
:105AD00042464B46FCF7ECF952465B46FDF722FD89
:105AE000FCF7B8FA77604FF47A72DFF87413FFF7B7
:105AF000DFFBBDE8F28F00003C060020D40500204B
:105B000000000000D80500209EBC00209FBC0020A3
:105B100038060020E805002000806640FB2109408F
:105B20009BBC0020000600202800002084050020E7
:105B3000680000202DE9F0412DED028B06000F00DA
:105B40009FED9A8AB3EB02083068FDF7C3FC0400AE
:105B50000D004046FCF794F9DFF80823DFF808331E
:105B6000FCF7A6F922002B00FDF7DCFC01F090F910
:105B7000306096ED000AD7ED030AB4EE600AF1EE4C
:105B800010FA02DBF868306010E097ED030AB1EE1E
:105B9000400AD6ED000AB4EE600AF1EE10FA05DB19
:105BA00097ED030AB1EE400A86ED000A97ED008AF0
:105BB00097ED020ADFF8B4020078032809D0DFF875
:105BC000B0020078032804D0DFF8A802007801288A
:105BD0000DD110EE100AFDF77DFCDFF89C22DFF8F6
:105BE0009C32FDF79FFC01F053F900EE100A00EE25
:105BF000908AF8EEE00A60EE880A7068B8EB000060
:105C000001EE100AB8EEC11A41EE000ABDEEE08ABC
:105C1000DFF86C0200684068DFF864120968896880
:105C2000884201DA012200E00022D2B29FED6D0A23
:105C300093480068416809B218EE100A00B200F0FB
:105C400047F807008E48006840688D4909688860F9
:105C50008B48006880ED018A18EE100AFCF710F9F5
:105C60005FF06632874BFCF723F904000D00706883
:105C7000FCF706F95FF03332834BFCF719F9220089
:105C80002B00FDF74FFCFCF7E5F900B208EE100A17
:105C900086ED018A4FF482727C4918EE100AFFF7F4
:105CA00007FB08EE100A3800BDEC028BBDE8F0815E
:105CB000700600209ABC002040060020380000201A
:105CC000740500205800002056FAFFFF64050020EC
:105CD00038B52DED028B05000C00B0EE408A2DB2D8
:105CE00024B2281B012803DB01206949087007E062
:105CF0002DB224B2281B002802D500206449087068
:105D000063480078D2B2904229D162480078401CA2
:105D1000604908702DB224B2281BFCF7B1F831F0AD
:105D2000004101225C4B01F0B7FA04D859480078D1
:105D3000401D5849087057480078092815DB18EEAF
:105D4000100AFDF7C7FB284A284BFDF7EBFB01F0D3
